{
  "address": "0x62315070De4b9CF0391f65d10d67998cFad60c0A",
  "abi": [
    {
      "inputs": [
        {
          "internalType": "contract IEAS",
          "name": "eas",
          "type": "address"
        },
        {
          "internalType": "address",
          "name": "_validatorResolver",
          "type": "address"
        }
      ],
      "stateMutability": "nonpayable",
      "type": "constructor"
    },
    {
      "inputs": [],
      "name": "AccessDenied",
      "type": "error"
    },
    {
      "inputs": [],
      "name": "InsufficientValue",
      "type": "error"
    },
    {
      "inputs": [],
      "name": "InvalidAllowance",
      "type": "error"
    },
    {
      "inputs": [],
      "name": "InvalidEAS",
      "type": "error"
    },
    {
      "inputs": [],
      "name": "InvalidLength",
      "type": "error"
    },
    {
      "inputs": [],
      "name": "NotPayable",
      "type": "error"
    },
    {
      "inputs": [
        {
          "components": [
            {
              "internalType": "bytes32",
              "name": "uid",
              "type": "bytes32"
            },
            {
              "internalType": "bytes32",
              "name": "schema",
              "type": "bytes32"
            },
            {
              "internalType": "uint64",
              "name": "time",
              "type": "uint64"
            },
            {
              "internalType": "uint64",
              "name": "expirationTime",
              "type": "uint64"
            },
            {
              "internalType": "uint64",
              "name": "revocationTime",
              "type": "uint64"
            },
            {
              "internalType": "bytes32",
              "name": "refUID",
              "type": "bytes32"
            },
            {
              "internalType": "address",
              "name": "recipient",
              "type": "address"
            },
            {
              "internalType": "address",
              "name": "attester",
              "type": "address"
            },
            {
              "internalType": "bool",
              "name": "revocable",
              "type": "bool"
            },
            {
              "internalType": "bytes",
              "name": "data",
              "type": "bytes"
            }
          ],
          "internalType": "struct Attestation",
          "name": "attestation",
          "type": "tuple"
        }
      ],
      "name": "attest",
      "outputs": [
        {
          "internalType": "bool",
          "name": "",
          "type": "bool"
        }
      ],
      "stateMutability": "payable",
      "type": "function"
    },
    {
      "inputs": [],
      "name": "isPayable",
      "outputs": [
        {
          "internalType": "bool",
          "name": "",
          "type": "bool"
        }
      ],
      "stateMutability": "pure",
      "type": "function"
    },
    {
      "inputs": [
        {
          "components": [
            {
              "internalType": "bytes32",
              "name": "uid",
              "type": "bytes32"
            },
            {
              "internalType": "bytes32",
              "name": "schema",
              "type": "bytes32"
            },
            {
              "internalType": "uint64",
              "name": "time",
              "type": "uint64"
            },
            {
              "internalType": "uint64",
              "name": "expirationTime",
              "type": "uint64"
            },
            {
              "internalType": "uint64",
              "name": "revocationTime",
              "type": "uint64"
            },
            {
              "internalType": "bytes32",
              "name": "refUID",
              "type": "bytes32"
            },
            {
              "internalType": "address",
              "name": "recipient",
              "type": "address"
            },
            {
              "internalType": "address",
              "name": "attester",
              "type": "address"
            },
            {
              "internalType": "bool",
              "name": "revocable",
              "type": "bool"
            },
            {
              "internalType": "bytes",
              "name": "data",
              "type": "bytes"
            }
          ],
          "internalType": "struct Attestation[]",
          "name": "attestations",
          "type": "tuple[]"
        },
        {
          "internalType": "uint256[]",
          "name": "values",
          "type": "uint256[]"
        }
      ],
      "name": "multiAttest",
      "outputs": [
        {
          "internalType": "bool",
          "name": "",
          "type": "bool"
        }
      ],
      "stateMutability": "payable",
      "type": "function"
    },
    {
      "inputs": [
        {
          "components": [
            {
              "internalType": "bytes32",
              "name": "uid",
              "type": "bytes32"
            },
            {
              "internalType": "bytes32",
              "name": "schema",
              "type": "bytes32"
            },
            {
              "internalType": "uint64",
              "name": "time",
              "type": "uint64"
            },
            {
              "internalType": "uint64",
              "name": "expirationTime",
              "type": "uint64"
            },
            {
              "internalType": "uint64",
              "name": "revocationTime",
              "type": "uint64"
            },
            {
              "internalType": "bytes32",
              "name": "refUID",
              "type": "bytes32"
            },
            {
              "internalType": "address",
              "name": "recipient",
              "type": "address"
            },
            {
              "internalType": "address",
              "name": "attester",
              "type": "address"
            },
            {
              "internalType": "bool",
              "name": "revocable",
              "type": "bool"
            },
            {
              "internalType": "bytes",
              "name": "data",
              "type": "bytes"
            }
          ],
          "internalType": "struct Attestation[]",
          "name": "attestations",
          "type": "tuple[]"
        },
        {
          "internalType": "uint256[]",
          "name": "values",
          "type": "uint256[]"
        }
      ],
      "name": "multiRevoke",
      "outputs": [
        {
          "internalType": "bool",
          "name": "",
          "type": "bool"
        }
      ],
      "stateMutability": "payable",
      "type": "function"
    },
    {
      "inputs": [
        {
          "components": [
            {
              "internalType": "bytes32",
              "name": "uid",
              "type": "bytes32"
            },
            {
              "internalType": "bytes32",
              "name": "schema",
              "type": "bytes32"
            },
            {
              "internalType": "uint64",
              "name": "time",
              "type": "uint64"
            },
            {
              "internalType": "uint64",
              "name": "expirationTime",
              "type": "uint64"
            },
            {
              "internalType": "uint64",
              "name": "revocationTime",
              "type": "uint64"
            },
            {
              "internalType": "bytes32",
              "name": "refUID",
              "type": "bytes32"
            },
            {
              "internalType": "address",
              "name": "recipient",
              "type": "address"
            },
            {
              "internalType": "address",
              "name": "attester",
              "type": "address"
            },
            {
              "internalType": "bool",
              "name": "revocable",
              "type": "bool"
            },
            {
              "internalType": "bytes",
              "name": "data",
              "type": "bytes"
            }
          ],
          "internalType": "struct Attestation",
          "name": "attestation",
          "type": "tuple"
        }
      ],
      "name": "revoke",
      "outputs": [
        {
          "internalType": "bool",
          "name": "",
          "type": "bool"
        }
      ],
      "stateMutability": "payable",
      "type": "function"
    },
    {
      "inputs": [],
      "name": "validatorResolver",
      "outputs": [
        {
          "internalType": "contract ITCR",
          "name": "",
          "type": "address"
        }
      ],
      "stateMutability": "view",
      "type": "function"
    },
    {
      "inputs": [],
      "name": "version",
      "outputs": [
        {
          "internalType": "string",
          "name": "",
          "type": "string"
        }
      ],
      "stateMutability": "view",
      "type": "function"
    },
    {
      "stateMutability": "payable",
      "type": "receive"
    }
  ],
  "transactionHash": "0xd44ae5f314c2fdc1b063b2c0854d44a1355d0200489e151b136c16820977b222",
  "args": [
    "0x848F3ceF2F761Faa11b8B179c4b02a186c1D2B2c",
    "0xDd01570fbc821B99Bee7A1610cBBe0Eb5437aC4c"
  ],
  "numDeployments": 1,
  "solcInputHash": "f414df287dede342065c42985f5c4529",
  "bytecode": "0x61010060405234801561001157600080fd5b50604051611d87380380611d87833981810160405281019061003391906101d8565b8160016003600082608081815250508160a081815250508060c08181525050505050600073ffffffffffffffffffffffffffffffffffffffff168173ffffffffffffffffffffffffffffffffffffffff16036100bb576040517f83780ffe00000000000000000000000000000000000000000000000000000000815260040160405180910390fd5b8073ffffffffffffffffffffffffffffffffffffffff1660e08173ffffffffffffffffffffffffffffffffffffffff168152505050806000806101000a81548173ffffffffffffffffffffffffffffffffffffffff021916908373ffffffffffffffffffffffffffffffffffffffff1602179055505050610218565b600080fd5b600073ffffffffffffffffffffffffffffffffffffffff82169050919050565b60006101678261013c565b9050919050565b60006101798261015c565b9050919050565b6101898161016e565b811461019457600080fd5b50565b6000815190506101a681610180565b92915050565b6101b58161015c565b81146101c057600080fd5b50565b6000815190506101d2816101ac565b92915050565b600080604083850312156101ef576101ee610137565b5b60006101fd85828601610197565b925050602061020e858286016101c3565b9150509250929050565b60805160a05160c05160e051611b2f61025860003960008181610607015261074501526000610281015260006102580152600061022f0152611b2f6000f3fe6080604052600436106100745760003560e01c806391db0b7e1161004e57806391db0b7e14610144578063ce46e04614610174578063e49617e11461019f578063e60c3505146101cf576100b9565b80633413cb65146100be57806354fd4d50146100e957806388e5b2d914610114576100b9565b366100b9576100816101ff565b6100b7576040517f1574f9f300000000000000000000000000000000000000000000000000000000815260040160405180910390fd5b005b600080fd5b3480156100ca57600080fd5b506100d3610204565b6040516100e09190610dbe565b60405180910390f35b3480156100f557600080fd5b506100fe610228565b60405161010b9190610e69565b60405180910390f35b61012e60048036038101906101299190610f5a565b6102cb565b60405161013b9190610ff6565b60405180910390f35b61015e60048036038101906101599190610f5a565b6103e6565b60405161016b9190610ff6565b60405180910390f35b34801561018057600080fd5b506101896101ff565b6040516101969190610ff6565b60405180910390f35b6101b960048036038101906101b49190611036565b610501565b6040516101c69190610ff6565b60405180910390f35b6101e960048036038101906101e49190611036565b61051c565b6040516101f69190610ff6565b60405180910390f35b600090565b60008054906101000a900473ffffffffffffffffffffffffffffffffffffffff1681565b60606102537f0000000000000000000000000000000000000000000000000000000000000000610537565b61027c7f0000000000000000000000000000000000000000000000000000000000000000610537565b6102a57f0000000000000000000000000000000000000000000000000000000000000000610537565b6040516020016102b793929190611107565b604051602081830303815290604052905090565b60006102d5610605565b6000858590509050838390508114610319576040517f947d5a8400000000000000000000000000000000000000000000000000000000815260040160405180910390fd5b600034905060005b828110156103d657600086868381811061033e5761033d61114e565b5b90506020020135905082811115610381576040517f1101129400000000000000000000000000000000000000000000000000000000815260040160405180910390fd5b6103af8989848181106103975761039661114e565b5b90506020028101906103a9919061118c565b8261068c565b6103c05760009450505050506103de565b8083039250506103cf81610694565b9050610321565b506001925050505b949350505050565b60006103f0610605565b6000858590509050838390508114610434576040517f947d5a8400000000000000000000000000000000000000000000000000000000815260040160405180910390fd5b600034905060005b828110156104f15760008686838181106104595761045861114e565b5b9050602002013590508281111561049c576040517f1101129400000000000000000000000000000000000000000000000000000000815260040160405180910390fd5b6104ca8989848181106104b2576104b161114e565b5b90506020028101906104c4919061118c565b826106a1565b6104db5760009450505050506104f9565b8083039250506104ea81610694565b905061043c565b506001925050505b949350505050565b600061050b610605565b610515823461068c565b9050919050565b6000610526610605565b61053082346106a1565b9050919050565b60606000600161054684610b03565b01905060008167ffffffffffffffff811115610565576105646111b5565b5b6040519080825280601f01601f1916602001820160405280156105975781602001600182028036833780820191505090505b509050600082602001820190505b6001156105fa578080600190039150507f3031323334353637383961626364656600000000000000000000000000000000600a86061a8153600a85816105ee576105ed6111e4565b5b049450600085036105a5575b819350505050919050565b7f000000000000000000000000000000000000000000000000000000000000000073ffffffffffffffffffffffffffffffffffffffff163373ffffffffffffffffffffffffffffffffffffffff161461068a576040517f4ca8886700000000000000000000000000000000000000000000000000000000815260040160405180910390fd5b565b600092915050565b6000600182019050919050565b60006106e16040518060400160405280600281526020017f6869000000000000000000000000000000000000000000000000000000000000815250610c56565b6000838061012001906106f49190611213565b81019061070191906112ac565b90506107416040518060400160405280600781526020017f6465636f64656400000000000000000000000000000000000000000000000000815250610c56565b60007f000000000000000000000000000000000000000000000000000000000000000073ffffffffffffffffffffffffffffffffffffffff1663a3112a648660a001356040518263ffffffff1660e01b81526004016107a091906112f2565b600060405180830381865afa1580156107bd573d6000803e3d6000fd5b505050506040513d6000823e3d601f19601f820116820180604052508101906107e691906115f1565b90506108266040518060400160405280600681526020017f6275795549440000000000000000000000000000000000000000000000000000815250610c56565b600080600080600080866101200151806020019051810190610848919061172e565b9850985098509850505096505095506108956040518060400160405280601681526020017f6275794174746573746174696f6e206465636f64656400000000000000000000815250610c56565b8388146108d7576040517f08c379a00000000000000000000000000000000000000000000000000000000081526004016108ce9061187c565b60405180910390fd5b824310610919576040517f08c379a0000000000000000000000000000000000000000000000000000000008152600401610910906118e8565b60405180910390fd5b81831061095b576040517f08c379a000000000000000000000000000000000000000000000000000000000815260040161095290611954565b60405180910390fd5b80821061099d576040517f08c379a0000000000000000000000000000000000000000000000000000000008152600401610994906119e6565b60405180910390fd5b8473ffffffffffffffffffffffffffffffffffffffff166323b872dd8c60c00160208101906109cc9190611a1b565b60008054906101000a900473ffffffffffffffffffffffffffffffffffffffff168b6040518463ffffffff1660e01b8152600401610a0c93929190611a66565b6020604051808303816000875af1158015610a2b573d6000803e3d6000fd5b505050506040513d601f19601f82011682018060405250810190610a4f9190611a9d565b5060008054906101000a900473ffffffffffffffffffffffffffffffffffffffff1673ffffffffffffffffffffffffffffffffffffffff1663597810348c60c0016020810190610a9f9190611a1b565b878b6040518463ffffffff1660e01b8152600401610abf93929190611a66565b600060405180830381600087803b158015610ad957600080fd5b505af1158015610aed573d6000803e3d6000fd5b5050505060019850505050505050505092915050565b600080600090507a184f03e93ff9f4daa797ed6e38ed64bf6a1f0100000000000000008310610b61577a184f03e93ff9f4daa797ed6e38ed64bf6a1f0100000000000000008381610b5757610b566111e4565b5b0492506040810190505b6d04ee2d6d415b85acef81000000008310610b9e576d04ee2d6d415b85acef81000000008381610b9457610b936111e4565b5b0492506020810190505b662386f26fc100008310610bcd57662386f26fc100008381610bc357610bc26111e4565b5b0492506010810190505b6305f5e1008310610bf6576305f5e1008381610bec57610beb6111e4565b5b0492506008810190505b6127108310610c1b576127108381610c1157610c106111e4565b5b0492506004810190505b60648310610c3e5760648381610c3457610c336111e4565b5b0492506002810190505b600a8310610c4d576001810190505b80915050919050565b610cec81604051602401610c6a9190610e69565b6040516020818303038152906040527f41304fac000000000000000000000000000000000000000000000000000000007bffffffffffffffffffffffffffffffffffffffffffffffffffffffff19166020820180517bffffffffffffffffffffffffffffffffffffffffffffffffffffffff8381831617835250505050610cef565b50565b610d0681610cfe610d09610d2a565b63ffffffff16565b50565b60006a636f6e736f6c652e6c6f679050600080835160208501845afa505050565b610d35819050919050565b610d3d611aca565b565b600073ffffffffffffffffffffffffffffffffffffffff82169050919050565b6000819050919050565b6000610d84610d7f610d7a84610d3f565b610d5f565b610d3f565b9050919050565b6000610d9682610d69565b9050919050565b6000610da882610d8b565b9050919050565b610db881610d9d565b82525050565b6000602082019050610dd36000830184610daf565b92915050565b600081519050919050565b600082825260208201905092915050565b60005b83811015610e13578082015181840152602081019050610df8565b60008484015250505050565b6000601f19601f8301169050919050565b6000610e3b82610dd9565b610e458185610de4565b9350610e55818560208601610df5565b610e5e81610e1f565b840191505092915050565b60006020820190508181036000830152610e838184610e30565b905092915050565b6000604051905090565b600080fd5b600080fd5b600080fd5b600080fd5b600080fd5b60008083601f840112610ec457610ec3610e9f565b5b8235905067ffffffffffffffff811115610ee157610ee0610ea4565b5b602083019150836020820283011115610efd57610efc610ea9565b5b9250929050565b60008083601f840112610f1a57610f19610e9f565b5b8235905067ffffffffffffffff811115610f3757610f36610ea4565b5b602083019150836020820283011115610f5357610f52610ea9565b5b9250929050565b60008060008060408587031215610f7457610f73610e95565b5b600085013567ffffffffffffffff811115610f9257610f91610e9a565b5b610f9e87828801610eae565b9450945050602085013567ffffffffffffffff811115610fc157610fc0610e9a565b5b610fcd87828801610f04565b925092505092959194509250565b60008115159050919050565b610ff081610fdb565b82525050565b600060208201905061100b6000830184610fe7565b92915050565b600080fd5b6000610140828403121561102d5761102c611011565b5b81905092915050565b60006020828403121561104c5761104b610e95565b5b600082013567ffffffffffffffff81111561106a57611069610e9a565b5b61107684828501611016565b91505092915050565b600081905092915050565b600061109582610dd9565b61109f818561107f565b93506110af818560208601610df5565b80840191505092915050565b7f2e00000000000000000000000000000000000000000000000000000000000000600082015250565b60006110f160018361107f565b91506110fc826110bb565b600182019050919050565b6000611113828661108a565b915061111e826110e4565b915061112a828561108a565b9150611135826110e4565b9150611141828461108a565b9150819050949350505050565b7f4e487b7100000000000000000000000000000000000000000000000000000000600052603260045260246000fd5b600080fd5b600080fd5b600080fd5b600082356001610140038336030381126111a9576111a861117d565b5b80830191505092915050565b7f4e487b7100000000000000000000000000000000000000000000000000000000600052604160045260246000fd5b7f4e487b7100000000000000000000000000000000000000000000000000000000600052601260045260246000fd5b600080833560016020038436030381126112305761122f61117d565b5b80840192508235915067ffffffffffffffff82111561125257611251611182565b5b60208301925060018202360383131561126e5761126d611187565b5b509250929050565b6000819050919050565b61128981611276565b811461129457600080fd5b50565b6000813590506112a681611280565b92915050565b6000602082840312156112c2576112c1610e95565b5b60006112d084828501611297565b91505092915050565b6000819050919050565b6112ec816112d9565b82525050565b600060208201905061130760008301846112e3565b92915050565b600080fd5b61131b82610e1f565b810181811067ffffffffffffffff8211171561133a576113396111b5565b5b80604052505050565b600061134d610e8b565b90506113598282611312565b919050565b600080fd5b61136c816112d9565b811461137757600080fd5b50565b60008151905061138981611363565b92915050565b600067ffffffffffffffff82169050919050565b6113ac8161138f565b81146113b757600080fd5b50565b6000815190506113c9816113a3565b92915050565b60006113da82610d3f565b9050919050565b6113ea816113cf565b81146113f557600080fd5b50565b600081519050611407816113e1565b92915050565b61141681610fdb565b811461142157600080fd5b50565b6000815190506114338161140d565b92915050565b600080fd5b600067ffffffffffffffff821115611459576114586111b5565b5b61146282610e1f565b9050602081019050919050565b600061148261147d8461143e565b611343565b90508281526020810184848401111561149e5761149d611439565b5b6114a9848285610df5565b509392505050565b600082601f8301126114c6576114c5610e9f565b5b81516114d684826020860161146f565b91505092915050565b600061014082840312156114f6576114f561130d565b5b611501610140611343565b905060006115118482850161137a565b60008301525060206115258482850161137a565b6020830152506040611539848285016113ba565b604083015250606061154d848285016113ba565b6060830152506080611561848285016113ba565b60808301525060a06115758482850161137a565b60a08301525060c0611589848285016113f8565b60c08301525060e061159d848285016113f8565b60e0830152506101006115b284828501611424565b6101008301525061012082015167ffffffffffffffff8111156115d8576115d761135e565b5b6115e4848285016114b1565b6101208301525092915050565b60006020828403121561160757611606610e95565b5b600082015167ffffffffffffffff81111561162557611624610e9a565b5b611631848285016114df565b91505092915050565b600061164582610d3f565b9050919050565b6116558161163a565b811461166057600080fd5b50565b6000815190506116728161164c565b92915050565b60008151905061168781611280565b92915050565b600067ffffffffffffffff8211156116a8576116a76111b5565b5b6116b182610e1f565b9050602081019050919050565b60006116d16116cc8461168d565b611343565b9050828152602081018484840111156116ed576116ec611439565b5b6116f8848285610df5565b509392505050565b600082601f83011261171557611714610e9f565b5b81516117258482602086016116be565b91505092915050565b60008060008060008060008060006101208a8c03121561175157611750610e95565b5b600061175f8c828d01611663565b99505060206117708c828d01611678565b98505060406117818c828d01611663565b97505060608a015167ffffffffffffffff8111156117a2576117a1610e9a565b5b6117ae8c828d01611700565b96505060808a015167ffffffffffffffff8111156117cf576117ce610e9a565b5b6117db8c828d01611700565b95505060a06117ec8c828d01611678565b94505060c06117fd8c828d01611678565b93505060e061180e8c828d01611678565b9250506101006118208c828d01611678565b9150509295985092959850929598565b7f436f6c6c61746572616c206d69736d6174636800000000000000000000000000600082015250565b6000611866601383610de4565b915061187182611830565b602082019050919050565b6000602082019050818103600083015261189581611859565b9050919050565b7f4f6666657220446561646c696e65206578706972656400000000000000000000600082015250565b60006118d2601683610de4565b91506118dd8261189c565b602082019050919050565b60006020820190508181036000830152611901816118c5565b9050919050565b7f4a6f62206d7573742066696e697368206166746572206f666665720000000000600082015250565b600061193e601b83610de4565b915061194982611908565b602082019050919050565b6000602082019050818103600083015261196d81611931565b9050919050565b7f4172626974726174696f6e206d7573742066696e697368206166746572206a6f60008201527f6200000000000000000000000000000000000000000000000000000000000000602082015250565b60006119d0602183610de4565b91506119db82611974565b604082019050919050565b600060208201905081810360008301526119ff816119c3565b9050919050565b600081359050611a15816113e1565b92915050565b600060208284031215611a3157611a30610e95565b5b6000611a3f84828501611a06565b91505092915050565b611a51816113cf565b82525050565b611a6081611276565b82525050565b6000606082019050611a7b6000830186611a48565b611a886020830185611a48565b611a956040830184611a57565b949350505050565b600060208284031215611ab357611ab2610e95565b5b6000611ac184828501611424565b91505092915050565b7f4e487b7100000000000000000000000000000000000000000000000000000000600052605160045260246000fdfea2646970667358221220da39bc708c138d66a8a6605400e19a1a6417a4919e43d301d52885185318cbb964736f6c634300081a0033",
  "devdoc": {
    "kind": "dev",
    "methods": {
      "attest((bytes32,bytes32,uint64,uint64,uint64,bytes32,address,address,bool,bytes))": {
        "params": {
          "attestation": "The new attestation."
        },
        "returns": {
          "_0": "Whether the attestation is valid."
        }
      },
      "isPayable()": {
        "returns": {
          "_0": "Whether the resolver supports ETH transfers."
        }
      },
      "multiAttest((bytes32,bytes32,uint64,uint64,uint64,bytes32,address,address,bool,bytes)[],uint256[])": {
        "params": {
          "attestations": "The new attestations.",
          "values": "Explicit ETH amounts which were sent with each attestation."
        },
        "returns": {
          "_0": "Whether all the attestations are valid."
        }
      },
      "multiRevoke((bytes32,bytes32,uint64,uint64,uint64,bytes32,address,address,bool,bytes)[],uint256[])": {
        "params": {
          "attestations": "The existing attestations to be revoked.",
          "values": "Explicit ETH amounts which were sent with each revocation."
        },
        "returns": {
          "_0": "Whether the attestations can be revoked."
        }
      },
      "revoke((bytes32,bytes32,uint64,uint64,uint64,bytes32,address,address,bool,bytes))": {
        "params": {
          "attestation": "The existing attestation to be revoked."
        },
        "returns": {
          "_0": "Whether the attestation can be revoked."
        }
      },
      "version()": {
        "returns": {
          "_0": "Semver contract version as a string."
        }
      }
    },
    "version": 1
  },
  "userdoc": {
    "kind": "user",
    "methods": {
      "attest((bytes32,bytes32,uint64,uint64,uint64,bytes32,address,address,bool,bytes))": {
        "notice": "Processes an attestation and verifies whether it's valid."
      },
      "isPayable()": {
        "notice": "Checks if the resolver can be sent ETH."
      },
      "multiAttest((bytes32,bytes32,uint64,uint64,uint64,bytes32,address,address,bool,bytes)[],uint256[])": {
        "notice": "Processes multiple attestations and verifies whether they are valid."
      },
      "multiRevoke((bytes32,bytes32,uint64,uint64,uint64,bytes32,address,address,bool,bytes)[],uint256[])": {
        "notice": "Processes revocation of multiple attestation and verifies they can be revoked."
      },
      "revoke((bytes32,bytes32,uint64,uint64,uint64,bytes32,address,address,bool,bytes))": {
        "notice": "Processes an attestation revocation and verifies if it can be revoked."
      },
      "version()": {
        "notice": "Returns the full semver contract version."
      }
    },
    "version": 1
  },
  "storageLayout": {
    "storage": [
      {
        "astId": 3300,
        "contract": "contracts/docker/resolvers/SellCollateralResolver.sol:SellCollateralResolver",
        "label": "validatorResolver",
        "offset": 0,
        "slot": "0",
        "type": "t_contract(ITCR)3518"
      }
    ],
    "types": {
      "t_contract(ITCR)3518": {
        "encoding": "inplace",
        "label": "contract ITCR",
        "numberOfBytes": "20"
      }
    }
  }
}