{
  "address": "0x848F3ceF2F761Faa11b8B179c4b02a186c1D2B2c",
  "abi": [
    {
      "inputs": [
        {
          "internalType": "contract IEAS",
          "name": "eas",
          "type": "address"
        },
        {
          "internalType": "address",
          "name": "_validatorResolver",
          "type": "address"
        }
      ],
      "stateMutability": "nonpayable",
      "type": "constructor"
    },
    {
      "inputs": [],
      "name": "AccessDenied",
      "type": "error"
    },
    {
      "inputs": [],
      "name": "InsufficientValue",
      "type": "error"
    },
    {
      "inputs": [],
      "name": "InvalidAllowance",
      "type": "error"
    },
    {
      "inputs": [],
      "name": "InvalidEAS",
      "type": "error"
    },
    {
      "inputs": [],
      "name": "InvalidLength",
      "type": "error"
    },
    {
      "inputs": [],
      "name": "NotPayable",
      "type": "error"
    },
    {
      "inputs": [
        {
          "components": [
            {
              "internalType": "bytes32",
              "name": "uid",
              "type": "bytes32"
            },
            {
              "internalType": "bytes32",
              "name": "schema",
              "type": "bytes32"
            },
            {
              "internalType": "uint64",
              "name": "time",
              "type": "uint64"
            },
            {
              "internalType": "uint64",
              "name": "expirationTime",
              "type": "uint64"
            },
            {
              "internalType": "uint64",
              "name": "revocationTime",
              "type": "uint64"
            },
            {
              "internalType": "bytes32",
              "name": "refUID",
              "type": "bytes32"
            },
            {
              "internalType": "address",
              "name": "recipient",
              "type": "address"
            },
            {
              "internalType": "address",
              "name": "attester",
              "type": "address"
            },
            {
              "internalType": "bool",
              "name": "revocable",
              "type": "bool"
            },
            {
              "internalType": "bytes",
              "name": "data",
              "type": "bytes"
            }
          ],
          "internalType": "struct Attestation",
          "name": "attestation",
          "type": "tuple"
        }
      ],
      "name": "attest",
      "outputs": [
        {
          "internalType": "bool",
          "name": "",
          "type": "bool"
        }
      ],
      "stateMutability": "payable",
      "type": "function"
    },
    {
      "inputs": [],
      "name": "isPayable",
      "outputs": [
        {
          "internalType": "bool",
          "name": "",
          "type": "bool"
        }
      ],
      "stateMutability": "pure",
      "type": "function"
    },
    {
      "inputs": [
        {
          "components": [
            {
              "internalType": "bytes32",
              "name": "uid",
              "type": "bytes32"
            },
            {
              "internalType": "bytes32",
              "name": "schema",
              "type": "bytes32"
            },
            {
              "internalType": "uint64",
              "name": "time",
              "type": "uint64"
            },
            {
              "internalType": "uint64",
              "name": "expirationTime",
              "type": "uint64"
            },
            {
              "internalType": "uint64",
              "name": "revocationTime",
              "type": "uint64"
            },
            {
              "internalType": "bytes32",
              "name": "refUID",
              "type": "bytes32"
            },
            {
              "internalType": "address",
              "name": "recipient",
              "type": "address"
            },
            {
              "internalType": "address",
              "name": "attester",
              "type": "address"
            },
            {
              "internalType": "bool",
              "name": "revocable",
              "type": "bool"
            },
            {
              "internalType": "bytes",
              "name": "data",
              "type": "bytes"
            }
          ],
          "internalType": "struct Attestation[]",
          "name": "attestations",
          "type": "tuple[]"
        },
        {
          "internalType": "uint256[]",
          "name": "values",
          "type": "uint256[]"
        }
      ],
      "name": "multiAttest",
      "outputs": [
        {
          "internalType": "bool",
          "name": "",
          "type": "bool"
        }
      ],
      "stateMutability": "payable",
      "type": "function"
    },
    {
      "inputs": [
        {
          "components": [
            {
              "internalType": "bytes32",
              "name": "uid",
              "type": "bytes32"
            },
            {
              "internalType": "bytes32",
              "name": "schema",
              "type": "bytes32"
            },
            {
              "internalType": "uint64",
              "name": "time",
              "type": "uint64"
            },
            {
              "internalType": "uint64",
              "name": "expirationTime",
              "type": "uint64"
            },
            {
              "internalType": "uint64",
              "name": "revocationTime",
              "type": "uint64"
            },
            {
              "internalType": "bytes32",
              "name": "refUID",
              "type": "bytes32"
            },
            {
              "internalType": "address",
              "name": "recipient",
              "type": "address"
            },
            {
              "internalType": "address",
              "name": "attester",
              "type": "address"
            },
            {
              "internalType": "bool",
              "name": "revocable",
              "type": "bool"
            },
            {
              "internalType": "bytes",
              "name": "data",
              "type": "bytes"
            }
          ],
          "internalType": "struct Attestation[]",
          "name": "attestations",
          "type": "tuple[]"
        },
        {
          "internalType": "uint256[]",
          "name": "values",
          "type": "uint256[]"
        }
      ],
      "name": "multiRevoke",
      "outputs": [
        {
          "internalType": "bool",
          "name": "",
          "type": "bool"
        }
      ],
      "stateMutability": "payable",
      "type": "function"
    },
    {
      "inputs": [
        {
          "components": [
            {
              "internalType": "bytes32",
              "name": "uid",
              "type": "bytes32"
            },
            {
              "internalType": "bytes32",
              "name": "schema",
              "type": "bytes32"
            },
            {
              "internalType": "uint64",
              "name": "time",
              "type": "uint64"
            },
            {
              "internalType": "uint64",
              "name": "expirationTime",
              "type": "uint64"
            },
            {
              "internalType": "uint64",
              "name": "revocationTime",
              "type": "uint64"
            },
            {
              "internalType": "bytes32",
              "name": "refUID",
              "type": "bytes32"
            },
            {
              "internalType": "address",
              "name": "recipient",
              "type": "address"
            },
            {
              "internalType": "address",
              "name": "attester",
              "type": "address"
            },
            {
              "internalType": "bool",
              "name": "revocable",
              "type": "bool"
            },
            {
              "internalType": "bytes",
              "name": "data",
              "type": "bytes"
            }
          ],
          "internalType": "struct Attestation",
          "name": "attestation",
          "type": "tuple"
        }
      ],
      "name": "revoke",
      "outputs": [
        {
          "internalType": "bool",
          "name": "",
          "type": "bool"
        }
      ],
      "stateMutability": "payable",
      "type": "function"
    },
    {
      "inputs": [],
      "name": "validatorResolver",
      "outputs": [
        {
          "internalType": "contract ITCR",
          "name": "",
          "type": "address"
        }
      ],
      "stateMutability": "view",
      "type": "function"
    },
    {
      "inputs": [],
      "name": "version",
      "outputs": [
        {
          "internalType": "string",
          "name": "",
          "type": "string"
        }
      ],
      "stateMutability": "view",
      "type": "function"
    },
    {
      "stateMutability": "payable",
      "type": "receive"
    }
  ],
  "transactionHash": "0xe2c8b479762c0ef6e6e8914250c694da9209eda43dcab6535ac0dc687ad7279c",
  "args": [
    "0x4200000000000000000000000000000000000021",
    "0x7cE23ee9023A138193C33F060A0060E918246E59"
  ],
  "numDeployments": 1,
  "solcInputHash": "5e7f73d6208b81d5047bd3b9fc102050",
  "bytecode": "0x61010060405234801561001157600080fd5b506040516115c13803806115c1833981810160405281019061003391906101d8565b8160016003600082608081815250508160a081815250508060c08181525050505050600073ffffffffffffffffffffffffffffffffffffffff168173ffffffffffffffffffffffffffffffffffffffff16036100bb576040517f83780ffe00000000000000000000000000000000000000000000000000000000815260040160405180910390fd5b8073ffffffffffffffffffffffffffffffffffffffff1660e08173ffffffffffffffffffffffffffffffffffffffff168152505050806000806101000a81548173ffffffffffffffffffffffffffffffffffffffff021916908373ffffffffffffffffffffffffffffffffffffffff1602179055505050610218565b600080fd5b600073ffffffffffffffffffffffffffffffffffffffff82169050919050565b60006101678261013c565b9050919050565b60006101798261015c565b9050919050565b6101898161016e565b811461019457600080fd5b50565b6000815190506101a681610180565b92915050565b6101b58161015c565b81146101c057600080fd5b50565b6000815190506101d2816101ac565b92915050565b600080604083850312156101ef576101ee610137565b5b60006101fd85828601610197565b925050602061020e858286016101c3565b9150509250929050565b60805160a05160c05160e051611370610251600039600061060701526000610281015260006102580152600061022f01526113706000f3fe6080604052600436106100745760003560e01c806391db0b7e1161004e57806391db0b7e14610144578063ce46e04614610174578063e49617e11461019f578063e60c3505146101cf576100b9565b80633413cb65146100be57806354fd4d50146100e957806388e5b2d914610114576100b9565b366100b9576100816101ff565b6100b7576040517f1574f9f300000000000000000000000000000000000000000000000000000000815260040160405180910390fd5b005b600080fd5b3480156100ca57600080fd5b506100d3610204565b6040516100e09190610be6565b60405180910390f35b3480156100f557600080fd5b506100fe610228565b60405161010b9190610c91565b60405180910390f35b61012e60048036038101906101299190610d78565b6102cb565b60405161013b9190610e14565b60405180910390f35b61015e60048036038101906101599190610d78565b6103e6565b60405161016b9190610e14565b60405180910390f35b34801561018057600080fd5b506101896101ff565b6040516101969190610e14565b60405180910390f35b6101b960048036038101906101b49190610e54565b610501565b6040516101c69190610e14565b60405180910390f35b6101e960048036038101906101e49190610e54565b61051c565b6040516101f69190610e14565b60405180910390f35b600090565b60008054906101000a900473ffffffffffffffffffffffffffffffffffffffff1681565b60606102537f0000000000000000000000000000000000000000000000000000000000000000610537565b61027c7f0000000000000000000000000000000000000000000000000000000000000000610537565b6102a57f0000000000000000000000000000000000000000000000000000000000000000610537565b6040516020016102b793929190610f25565b604051602081830303815290604052905090565b60006102d5610605565b6000858590509050838390508114610319576040517f947d5a8400000000000000000000000000000000000000000000000000000000815260040160405180910390fd5b600034905060005b828110156103d657600086868381811061033e5761033d610f6c565b5b90506020020135905082811115610381576040517f1101129400000000000000000000000000000000000000000000000000000000815260040160405180910390fd5b6103af89898481811061039757610396610f6c565b5b90506020028101906103a99190610faa565b8261068c565b6103c05760009450505050506103de565b8083039250506103cf81610698565b9050610321565b506001925050505b949350505050565b60006103f0610605565b6000858590509050838390508114610434576040517f947d5a8400000000000000000000000000000000000000000000000000000000815260040160405180910390fd5b600034905060005b828110156104f157600086868381811061045957610458610f6c565b5b9050602002013590508281111561049c576040517f1101129400000000000000000000000000000000000000000000000000000000815260040160405180910390fd5b6104ca8989848181106104b2576104b1610f6c565b5b90506020028101906104c49190610faa565b826106a5565b6104db5760009450505050506104f9565b8083039250506104ea81610698565b905061043c565b506001925050505b949350505050565b600061050b610605565b610515823461068c565b9050919050565b6000610526610605565b61053082346106a5565b9050919050565b60606000600161054684610892565b01905060008167ffffffffffffffff81111561056557610564610fd3565b5b6040519080825280601f01601f1916602001820160405280156105975781602001600182028036833780820191505090505b509050600082602001820190505b6001156105fa578080600190039150507f3031323334353637383961626364656600000000000000000000000000000000600a86061a8153600a85816105ee576105ed611002565b5b049450600085036105a5575b819350505050919050565b7f000000000000000000000000000000000000000000000000000000000000000073ffffffffffffffffffffffffffffffffffffffff163373ffffffffffffffffffffffffffffffffffffffff161461068a576040517f4ca8886700000000000000000000000000000000000000000000000000000000815260040160405180910390fd5b565b60006001905092915050565b6000600182019050919050565b60006106b483600001356109e5565b6000806000806000806000808a8061012001906106d19190611031565b8101906106de9190611108565b975097509750975097509750975097508573ffffffffffffffffffffffffffffffffffffffff166323b872dd8c60c001602081019061071d91906111fc565b60008054906101000a900473ffffffffffffffffffffffffffffffffffffffff168a6040518463ffffffff1660e01b815260040161075d93929190611247565b6020604051808303816000875af115801561077c573d6000803e3d6000fd5b505050506040513d601f19601f820116820180604052508101906107a091906112aa565b5060008054906101000a900473ffffffffffffffffffffffffffffffffffffffff1673ffffffffffffffffffffffffffffffffffffffff1663597810348c60c00160208101906107f091906111fc565b888a6040518463ffffffff1660e01b815260040161081093929190611247565b600060405180830381600087803b15801561082a57600080fd5b505af115801561083e573d6000803e3d6000fd5b505050506108806040518060400160405280600881526020017f4174746573746564000000000000000000000000000000000000000000000000815250610a7e565b60019850505050505050505092915050565b600080600090507a184f03e93ff9f4daa797ed6e38ed64bf6a1f01000000000000000083106108f0577a184f03e93ff9f4daa797ed6e38ed64bf6a1f01000000000000000083816108e6576108e5611002565b5b0492506040810190505b6d04ee2d6d415b85acef8100000000831061092d576d04ee2d6d415b85acef8100000000838161092357610922611002565b5b0492506020810190505b662386f26fc10000831061095c57662386f26fc10000838161095257610951611002565b5b0492506010810190505b6305f5e1008310610985576305f5e100838161097b5761097a611002565b5b0492506008810190505b61271083106109aa5761271083816109a05761099f611002565b5b0492506004810190505b606483106109cd57606483816109c3576109c2611002565b5b0492506002810190505b600a83106109dc576001810190505b80915050919050565b610a7b816040516024016109f991906112f0565b6040516020818303038152906040527f27b7cf85000000000000000000000000000000000000000000000000000000007bffffffffffffffffffffffffffffffffffffffffffffffffffffffff19166020820180517bffffffffffffffffffffffffffffffffffffffffffffffffffffffff8381831617835250505050610b17565b50565b610b1481604051602401610a929190610c91565b6040516020818303038152906040527f41304fac000000000000000000000000000000000000000000000000000000007bffffffffffffffffffffffffffffffffffffffffffffffffffffffff19166020820180517bffffffffffffffffffffffffffffffffffffffffffffffffffffffff8381831617835250505050610b17565b50565b610b2e81610b26610b31610b52565b63ffffffff16565b50565b60006a636f6e736f6c652e6c6f679050600080835160208501845afa505050565b610b5d819050919050565b610b6561130b565b565b600073ffffffffffffffffffffffffffffffffffffffff82169050919050565b6000819050919050565b6000610bac610ba7610ba284610b67565b610b87565b610b67565b9050919050565b6000610bbe82610b91565b9050919050565b6000610bd082610bb3565b9050919050565b610be081610bc5565b82525050565b6000602082019050610bfb6000830184610bd7565b92915050565b600081519050919050565b600082825260208201905092915050565b60005b83811015610c3b578082015181840152602081019050610c20565b60008484015250505050565b6000601f19601f8301169050919050565b6000610c6382610c01565b610c6d8185610c0c565b9350610c7d818560208601610c1d565b610c8681610c47565b840191505092915050565b60006020820190508181036000830152610cab8184610c58565b905092915050565b600080fd5b600080fd5b600080fd5b600080fd5b600080fd5b60008083601f840112610ce257610ce1610cbd565b5b8235905067ffffffffffffffff811115610cff57610cfe610cc2565b5b602083019150836020820283011115610d1b57610d1a610cc7565b5b9250929050565b60008083601f840112610d3857610d37610cbd565b5b8235905067ffffffffffffffff811115610d5557610d54610cc2565b5b602083019150836020820283011115610d7157610d70610cc7565b5b9250929050565b60008060008060408587031215610d9257610d91610cb3565b5b600085013567ffffffffffffffff811115610db057610daf610cb8565b5b610dbc87828801610ccc565b9450945050602085013567ffffffffffffffff811115610ddf57610dde610cb8565b5b610deb87828801610d22565b925092505092959194509250565b60008115159050919050565b610e0e81610df9565b82525050565b6000602082019050610e296000830184610e05565b92915050565b600080fd5b60006101408284031215610e4b57610e4a610e2f565b5b81905092915050565b600060208284031215610e6a57610e69610cb3565b5b600082013567ffffffffffffffff811115610e8857610e87610cb8565b5b610e9484828501610e34565b91505092915050565b600081905092915050565b6000610eb382610c01565b610ebd8185610e9d565b9350610ecd818560208601610c1d565b80840191505092915050565b7f2e00000000000000000000000000000000000000000000000000000000000000600082015250565b6000610f0f600183610e9d565b9150610f1a82610ed9565b600182019050919050565b6000610f318286610ea8565b9150610f3c82610f02565b9150610f488285610ea8565b9150610f5382610f02565b9150610f5f8284610ea8565b9150819050949350505050565b7f4e487b7100000000000000000000000000000000000000000000000000000000600052603260045260246000fd5b600080fd5b600080fd5b600080fd5b60008235600161014003833603038112610fc757610fc6610f9b565b5b80830191505092915050565b7f4e487b7100000000000000000000000000000000000000000000000000000000600052604160045260246000fd5b7f4e487b7100000000000000000000000000000000000000000000000000000000600052601260045260246000fd5b6000808335600160200384360303811261104e5761104d610f9b565b5b80840192508235915067ffffffffffffffff8211156110705761106f610fa0565b5b60208301925060018202360383131561108c5761108b610fa5565b5b509250929050565b600061109f82610b67565b9050919050565b6110af81611094565b81146110ba57600080fd5b50565b6000813590506110cc816110a6565b92915050565b6000819050919050565b6110e5816110d2565b81146110f057600080fd5b50565b600081359050611102816110dc565b92915050565b600080600080600080600080610100898b03121561112957611128610cb3565b5b60006111378b828c016110bd565b98505060206111488b828c016110f3565b97505060406111598b828c016110bd565b965050606061116a8b828c016110f3565b955050608061117b8b828c016110f3565b94505060a061118c8b828c016110f3565b93505060c061119d8b828c016110f3565b92505060e06111ae8b828c016110f3565b9150509295985092959890939650565b60006111c982610b67565b9050919050565b6111d9816111be565b81146111e457600080fd5b50565b6000813590506111f6816111d0565b92915050565b60006020828403121561121257611211610cb3565b5b6000611220848285016111e7565b91505092915050565b611232816111be565b82525050565b611241816110d2565b82525050565b600060608201905061125c6000830186611229565b6112696020830185611229565b6112766040830184611238565b949350505050565b61128781610df9565b811461129257600080fd5b50565b6000815190506112a48161127e565b92915050565b6000602082840312156112c0576112bf610cb3565b5b60006112ce84828501611295565b91505092915050565b6000819050919050565b6112ea816112d7565b82525050565b600060208201905061130560008301846112e1565b92915050565b7f4e487b7100000000000000000000000000000000000000000000000000000000600052605160045260246000fdfea2646970667358221220fbeb1ae0a4a0f51ada1003f5b32319b0a21060f2bd5374e1309ac5419e09e2c764736f6c634300081a0033",
  "devdoc": {
    "kind": "dev",
    "methods": {
      "attest((bytes32,bytes32,uint64,uint64,uint64,bytes32,address,address,bool,bytes))": {
        "params": {
          "attestation": "The new attestation."
        },
        "returns": {
          "_0": "Whether the attestation is valid."
        }
      },
      "isPayable()": {
        "returns": {
          "_0": "Whether the resolver supports ETH transfers."
        }
      },
      "multiAttest((bytes32,bytes32,uint64,uint64,uint64,bytes32,address,address,bool,bytes)[],uint256[])": {
        "params": {
          "attestations": "The new attestations.",
          "values": "Explicit ETH amounts which were sent with each attestation."
        },
        "returns": {
          "_0": "Whether all the attestations are valid."
        }
      },
      "multiRevoke((bytes32,bytes32,uint64,uint64,uint64,bytes32,address,address,bool,bytes)[],uint256[])": {
        "params": {
          "attestations": "The existing attestations to be revoked.",
          "values": "Explicit ETH amounts which were sent with each revocation."
        },
        "returns": {
          "_0": "Whether the attestations can be revoked."
        }
      },
      "revoke((bytes32,bytes32,uint64,uint64,uint64,bytes32,address,address,bool,bytes))": {
        "params": {
          "attestation": "The existing attestation to be revoked."
        },
        "returns": {
          "_0": "Whether the attestation can be revoked."
        }
      },
      "version()": {
        "returns": {
          "_0": "Semver contract version as a string."
        }
      }
    },
    "version": 1
  },
  "userdoc": {
    "kind": "user",
    "methods": {
      "attest((bytes32,bytes32,uint64,uint64,uint64,bytes32,address,address,bool,bytes))": {
        "notice": "Processes an attestation and verifies whether it's valid."
      },
      "isPayable()": {
        "notice": "Checks if the resolver can be sent ETH."
      },
      "multiAttest((bytes32,bytes32,uint64,uint64,uint64,bytes32,address,address,bool,bytes)[],uint256[])": {
        "notice": "Processes multiple attestations and verifies whether they are valid."
      },
      "multiRevoke((bytes32,bytes32,uint64,uint64,uint64,bytes32,address,address,bool,bytes)[],uint256[])": {
        "notice": "Processes revocation of multiple attestation and verifies they can be revoked."
      },
      "revoke((bytes32,bytes32,uint64,uint64,uint64,bytes32,address,address,bool,bytes))": {
        "notice": "Processes an attestation revocation and verifies if it can be revoked."
      },
      "version()": {
        "notice": "Returns the full semver contract version."
      }
    },
    "version": 1
  },
  "storageLayout": {
    "storage": [
      {
        "astId": 3695,
        "contract": "contracts/DCN6/resolvers/BuyCollateralResolver.sol:BuyCollateralResolver",
        "label": "validatorResolver",
        "offset": 0,
        "slot": "0",
        "type": "t_contract(ITCR)4059"
      }
    ],
    "types": {
      "t_contract(ITCR)4059": {
        "encoding": "inplace",
        "label": "contract ITCR",
        "numberOfBytes": "20"
      }
    }
  }
}