{
  "address": "0x7cE23ee9023A138193C33F060A0060E918246E59",
  "abi": [
    {
      "inputs": [
        {
          "internalType": "contract IEAS",
          "name": "eas",
          "type": "address"
        },
        {
          "internalType": "address",
          "name": "_validator",
          "type": "address"
        }
      ],
      "stateMutability": "nonpayable",
      "type": "constructor"
    },
    {
      "inputs": [],
      "name": "AccessDenied",
      "type": "error"
    },
    {
      "inputs": [],
      "name": "InsufficientValue",
      "type": "error"
    },
    {
      "inputs": [],
      "name": "InvalidAllowance",
      "type": "error"
    },
    {
      "inputs": [],
      "name": "InvalidEAS",
      "type": "error"
    },
    {
      "inputs": [],
      "name": "InvalidLength",
      "type": "error"
    },
    {
      "inputs": [],
      "name": "NotPayable",
      "type": "error"
    },
    {
      "inputs": [
        {
          "internalType": "address",
          "name": "user",
          "type": "address"
        },
        {
          "internalType": "address",
          "name": "paymentToken",
          "type": "address"
        },
        {
          "internalType": "uint256",
          "name": "collateral",
          "type": "uint256"
        }
      ],
      "name": "addCollateral",
      "outputs": [],
      "stateMutability": "payable",
      "type": "function"
    },
    {
      "inputs": [
        {
          "components": [
            {
              "internalType": "bytes32",
              "name": "uid",
              "type": "bytes32"
            },
            {
              "internalType": "bytes32",
              "name": "schema",
              "type": "bytes32"
            },
            {
              "internalType": "uint64",
              "name": "time",
              "type": "uint64"
            },
            {
              "internalType": "uint64",
              "name": "expirationTime",
              "type": "uint64"
            },
            {
              "internalType": "uint64",
              "name": "revocationTime",
              "type": "uint64"
            },
            {
              "internalType": "bytes32",
              "name": "refUID",
              "type": "bytes32"
            },
            {
              "internalType": "address",
              "name": "recipient",
              "type": "address"
            },
            {
              "internalType": "address",
              "name": "attester",
              "type": "address"
            },
            {
              "internalType": "bool",
              "name": "revocable",
              "type": "bool"
            },
            {
              "internalType": "bytes",
              "name": "data",
              "type": "bytes"
            }
          ],
          "internalType": "struct Attestation",
          "name": "attestation",
          "type": "tuple"
        }
      ],
      "name": "attest",
      "outputs": [
        {
          "internalType": "bool",
          "name": "",
          "type": "bool"
        }
      ],
      "stateMutability": "payable",
      "type": "function"
    },
    {
      "inputs": [],
      "name": "isPayable",
      "outputs": [
        {
          "internalType": "bool",
          "name": "",
          "type": "bool"
        }
      ],
      "stateMutability": "pure",
      "type": "function"
    },
    {
      "inputs": [
        {
          "components": [
            {
              "internalType": "bytes32",
              "name": "uid",
              "type": "bytes32"
            },
            {
              "internalType": "bytes32",
              "name": "schema",
              "type": "bytes32"
            },
            {
              "internalType": "uint64",
              "name": "time",
              "type": "uint64"
            },
            {
              "internalType": "uint64",
              "name": "expirationTime",
              "type": "uint64"
            },
            {
              "internalType": "uint64",
              "name": "revocationTime",
              "type": "uint64"
            },
            {
              "internalType": "bytes32",
              "name": "refUID",
              "type": "bytes32"
            },
            {
              "internalType": "address",
              "name": "recipient",
              "type": "address"
            },
            {
              "internalType": "address",
              "name": "attester",
              "type": "address"
            },
            {
              "internalType": "bool",
              "name": "revocable",
              "type": "bool"
            },
            {
              "internalType": "bytes",
              "name": "data",
              "type": "bytes"
            }
          ],
          "internalType": "struct Attestation[]",
          "name": "attestations",
          "type": "tuple[]"
        },
        {
          "internalType": "uint256[]",
          "name": "values",
          "type": "uint256[]"
        }
      ],
      "name": "multiAttest",
      "outputs": [
        {
          "internalType": "bool",
          "name": "",
          "type": "bool"
        }
      ],
      "stateMutability": "payable",
      "type": "function"
    },
    {
      "inputs": [
        {
          "components": [
            {
              "internalType": "bytes32",
              "name": "uid",
              "type": "bytes32"
            },
            {
              "internalType": "bytes32",
              "name": "schema",
              "type": "bytes32"
            },
            {
              "internalType": "uint64",
              "name": "time",
              "type": "uint64"
            },
            {
              "internalType": "uint64",
              "name": "expirationTime",
              "type": "uint64"
            },
            {
              "internalType": "uint64",
              "name": "revocationTime",
              "type": "uint64"
            },
            {
              "internalType": "bytes32",
              "name": "refUID",
              "type": "bytes32"
            },
            {
              "internalType": "address",
              "name": "recipient",
              "type": "address"
            },
            {
              "internalType": "address",
              "name": "attester",
              "type": "address"
            },
            {
              "internalType": "bool",
              "name": "revocable",
              "type": "bool"
            },
            {
              "internalType": "bytes",
              "name": "data",
              "type": "bytes"
            }
          ],
          "internalType": "struct Attestation[]",
          "name": "attestations",
          "type": "tuple[]"
        },
        {
          "internalType": "uint256[]",
          "name": "values",
          "type": "uint256[]"
        }
      ],
      "name": "multiRevoke",
      "outputs": [
        {
          "internalType": "bool",
          "name": "",
          "type": "bool"
        }
      ],
      "stateMutability": "payable",
      "type": "function"
    },
    {
      "inputs": [
        {
          "components": [
            {
              "internalType": "bytes32",
              "name": "uid",
              "type": "bytes32"
            },
            {
              "internalType": "bytes32",
              "name": "schema",
              "type": "bytes32"
            },
            {
              "internalType": "uint64",
              "name": "time",
              "type": "uint64"
            },
            {
              "internalType": "uint64",
              "name": "expirationTime",
              "type": "uint64"
            },
            {
              "internalType": "uint64",
              "name": "revocationTime",
              "type": "uint64"
            },
            {
              "internalType": "bytes32",
              "name": "refUID",
              "type": "bytes32"
            },
            {
              "internalType": "address",
              "name": "recipient",
              "type": "address"
            },
            {
              "internalType": "address",
              "name": "attester",
              "type": "address"
            },
            {
              "internalType": "bool",
              "name": "revocable",
              "type": "bool"
            },
            {
              "internalType": "bytes",
              "name": "data",
              "type": "bytes"
            }
          ],
          "internalType": "struct Attestation",
          "name": "attestation",
          "type": "tuple"
        }
      ],
      "name": "revoke",
      "outputs": [
        {
          "internalType": "bool",
          "name": "",
          "type": "bool"
        }
      ],
      "stateMutability": "payable",
      "type": "function"
    },
    {
      "inputs": [
        {
          "internalType": "address",
          "name": "_buyCollateralResolver",
          "type": "address"
        }
      ],
      "name": "setBuyCollateralResolver",
      "outputs": [],
      "stateMutability": "nonpayable",
      "type": "function"
    },
    {
      "inputs": [
        {
          "internalType": "address",
          "name": "_sellCollateralResolver",
          "type": "address"
        }
      ],
      "name": "setSellCollateralResolver",
      "outputs": [],
      "stateMutability": "nonpayable",
      "type": "function"
    },
    {
      "inputs": [
        {
          "internalType": "address",
          "name": "",
          "type": "address"
        },
        {
          "internalType": "address",
          "name": "",
          "type": "address"
        }
      ],
      "name": "userCollateral",
      "outputs": [
        {
          "internalType": "uint256",
          "name": "lockedCollateral",
          "type": "uint256"
        },
        {
          "internalType": "uint256",
          "name": "freeCollateral",
          "type": "uint256"
        }
      ],
      "stateMutability": "view",
      "type": "function"
    },
    {
      "inputs": [],
      "name": "version",
      "outputs": [
        {
          "internalType": "string",
          "name": "",
          "type": "string"
        }
      ],
      "stateMutability": "view",
      "type": "function"
    },
    {
      "stateMutability": "payable",
      "type": "receive"
    }
  ],
  "transactionHash": "0x1b0349e07b66a91a0931cec32f6f96158d89a11e501f7bc9acf8cade59d3bc02",
  "args": [
    "0x4200000000000000000000000000000000000021",
    "0x788ced731764cf1bdbf0da8acedaca7cae4c9997"
  ],
  "numDeployments": 1,
  "solcInputHash": "5e7f73d6208b81d5047bd3b9fc102050",
  "bytecode": "0x61010060405234801561001157600080fd5b50604051611dc8380380611dc8833981810160405281019061003391906101d8565b8160016003600082608081815250508160a081815250508060c08181525050505050600073ffffffffffffffffffffffffffffffffffffffff168173ffffffffffffffffffffffffffffffffffffffff16036100bb576040517f83780ffe00000000000000000000000000000000000000000000000000000000815260040160405180910390fd5b8073ffffffffffffffffffffffffffffffffffffffff1660e08173ffffffffffffffffffffffffffffffffffffffff168152505050806000806101000a81548173ffffffffffffffffffffffffffffffffffffffff021916908373ffffffffffffffffffffffffffffffffffffffff1602179055505050610218565b600080fd5b600073ffffffffffffffffffffffffffffffffffffffff82169050919050565b60006101678261013c565b9050919050565b60006101798261015c565b9050919050565b6101898161016e565b811461019457600080fd5b50565b6000815190506101a681610180565b92915050565b6101b58161015c565b81146101c057600080fd5b50565b6000815190506101d2816101ac565b92915050565b600080604083850312156101ef576101ee610137565b5b60006101fd85828601610197565b925050602061020e858286016101c3565b9150509250929050565b60805160a05160c05160e051611b6961025f600039600081816109dd01528181610a9e0152610b6201526000610402015260006103d9015260006103b00152611b696000f3fe6080604052600436106100955760003560e01c806391db0b7e1161005957806391db0b7e146101bd57806397412b87146101ed578063ce46e04614610216578063e49617e114610241578063e60c350514610271576100da565b80632b92a07d146100df578063438e60c21461011d57806354fd4d5014610146578063597810341461017157806388e5b2d91461018d576100da565b366100da576100a26102a1565b6100d8576040517f1574f9f300000000000000000000000000000000000000000000000000000000815260040160405180910390fd5b005b600080fd5b3480156100eb57600080fd5b5061010660048036038101906101019190610f2c565b6102a6565b604051610114929190610f85565b60405180910390f35b34801561012957600080fd5b50610144600480360381019061013f9190610fae565b6102d7565b005b34801561015257600080fd5b5061015b6103a9565b604051610168919061106b565b60405180910390f35b61018b600480360381019061018691906110b9565b61044c565b005b6101a760048036038101906101a291906111c7565b6105cf565b6040516101b49190611263565b60405180910390f35b6101d760048036038101906101d291906111c7565b6106ea565b6040516101e49190611263565b60405180910390f35b3480156101f957600080fd5b50610214600480360381019061020f9190610fae565b610805565b005b34801561022257600080fd5b5061022b6102a1565b6040516102389190611263565b60405180910390f35b61025b600480360381019061025691906112a3565b6108d7565b6040516102689190611263565b60405180910390f35b61028b600480360381019061028691906112a3565b6108f2565b6040516102989190611263565b60405180910390f35b600090565b6003602052816000526040600020602052806000526040600020600091509150508060000154908060010154905082565b60008054906101000a900473ffffffffffffffffffffffffffffffffffffffff1673ffffffffffffffffffffffffffffffffffffffff163373ffffffffffffffffffffffffffffffffffffffff1614610365576040517f08c379a000000000000000000000000000000000000000000000000000000000815260040161035c90611338565b60405180910390fd5b80600260006101000a81548173ffffffffffffffffffffffffffffffffffffffff021916908373ffffffffffffffffffffffffffffffffffffffff16021790555050565b60606103d47f000000000000000000000000000000000000000000000000000000000000000061090d565b6103fd7f000000000000000000000000000000000000000000000000000000000000000061090d565b6104267f000000000000000000000000000000000000000000000000000000000000000061090d565b604051602001610438939291906113e0565b604051602081830303815290604052905090565b600160009054906101000a900473ffffffffffffffffffffffffffffffffffffffff1673ffffffffffffffffffffffffffffffffffffffff163373ffffffffffffffffffffffffffffffffffffffff1614806104f55750600260009054906101000a900473ffffffffffffffffffffffffffffffffffffffff1673ffffffffffffffffffffffffffffffffffffffff163373ffffffffffffffffffffffffffffffffffffffff16145b610534576040517f08c379a000000000000000000000000000000000000000000000000000000000815260040161052b90611473565b60405180910390fd5b80600360008573ffffffffffffffffffffffffffffffffffffffff1673ffffffffffffffffffffffffffffffffffffffff16815260200190815260200160002060008473ffffffffffffffffffffffffffffffffffffffff1673ffffffffffffffffffffffffffffffffffffffff16815260200190815260200160002060000160008282546105c391906114c2565b92505081905550505050565b60006105d96109db565b600085859050905083839050811461061d576040517f947d5a8400000000000000000000000000000000000000000000000000000000815260040160405180910390fd5b600034905060005b828110156106da576000868683818110610642576106416114f6565b5b90506020020135905082811115610685576040517f1101129400000000000000000000000000000000000000000000000000000000815260040160405180910390fd5b6106b389898481811061069b5761069a6114f6565b5b90506020028101906106ad9190611534565b82610a62565b6106c45760009450505050506106e2565b8083039250506106d381610a6a565b9050610625565b506001925050505b949350505050565b60006106f46109db565b6000858590509050838390508114610738576040517f947d5a8400000000000000000000000000000000000000000000000000000000815260040160405180910390fd5b600034905060005b828110156107f557600086868381811061075d5761075c6114f6565b5b905060200201359050828111156107a0576040517f1101129400000000000000000000000000000000000000000000000000000000815260040160405180910390fd5b6107ce8989848181106107b6576107b56114f6565b5b90506020028101906107c89190611534565b82610a77565b6107df5760009450505050506107fd565b8083039250506107ee81610a6a565b9050610740565b506001925050505b949350505050565b60008054906101000a900473ffffffffffffffffffffffffffffffffffffffff1673ffffffffffffffffffffffffffffffffffffffff163373ffffffffffffffffffffffffffffffffffffffff1614610893576040517f08c379a000000000000000000000000000000000000000000000000000000000815260040161088a90611338565b60405180910390fd5b80600160006101000a81548173ffffffffffffffffffffffffffffffffffffffff021916908373ffffffffffffffffffffffffffffffffffffffff16021790555050565b60006108e16109db565b6108eb8234610a62565b9050919050565b60006108fc6109db565b6109068234610a77565b9050919050565b60606000600161091c84610d67565b01905060008167ffffffffffffffff81111561093b5761093a61155d565b5b6040519080825280601f01601f19166020018201604052801561096d5781602001600182028036833780820191505090505b509050600082602001820190505b6001156109d0578080600190039150507f3031323334353637383961626364656600000000000000000000000000000000600a86061a8153600a85816109c4576109c361158c565b5b0494506000850361097b575b819350505050919050565b7f000000000000000000000000000000000000000000000000000000000000000073ffffffffffffffffffffffffffffffffffffffff163373ffffffffffffffffffffffffffffffffffffffff1614610a60576040517f4ca8886700000000000000000000000000000000000000000000000000000000815260040160405180910390fd5b565b600092915050565b6000600182019050919050565b60008083806101200190610a8b91906115bb565b810190610a98919061164a565b905060007f000000000000000000000000000000000000000000000000000000000000000073ffffffffffffffffffffffffffffffffffffffff1663a3112a648660a001356040518263ffffffff1660e01b8152600401610af99190611690565b600060405180830381865afa158015610b16573d6000803e3d6000fd5b505050506040513d6000823e3d601f19601f82011682018060405250810190610b3f919061194f565b90506000816101200151806020019051810190610b5c91906119ad565b905060007f000000000000000000000000000000000000000000000000000000000000000073ffffffffffffffffffffffffffffffffffffffff1663a3112a648460a001516040518263ffffffff1660e01b8152600401610bbd9190611690565b600060405180830381865afa158015610bda573d6000803e3d6000fd5b505050506040513d6000823e3d601f19601f82011682018060405250810190610c03919061194f565b90506000806000836101200151806020019051810190610c239190611a18565b97505050505093509350508615610cc7578173ffffffffffffffffffffffffffffffffffffffff1663a9059cbb8760c001518786610c6191906114c2565b6040518363ffffffff1660e01b8152600401610c7e929190611add565b6020604051808303816000875af1158015610c9d573d6000803e3d6000fd5b505050506040513d601f19601f82011682018060405250810190610cc19190611b06565b50610d56565b8173ffffffffffffffffffffffffffffffffffffffff1663a9059cbb8560c001518786610cf491906114c2565b6040518363ffffffff1660e01b8152600401610d11929190611add565b6020604051808303816000875af1158015610d30573d6000803e3d6000fd5b505050506040513d601f19601f82011682018060405250810190610d549190611b06565b505b600197505050505050505092915050565b600080600090507a184f03e93ff9f4daa797ed6e38ed64bf6a1f0100000000000000008310610dc5577a184f03e93ff9f4daa797ed6e38ed64bf6a1f0100000000000000008381610dbb57610dba61158c565b5b0492506040810190505b6d04ee2d6d415b85acef81000000008310610e02576d04ee2d6d415b85acef81000000008381610df857610df761158c565b5b0492506020810190505b662386f26fc100008310610e3157662386f26fc100008381610e2757610e2661158c565b5b0492506010810190505b6305f5e1008310610e5a576305f5e1008381610e5057610e4f61158c565b5b0492506008810190505b6127108310610e7f576127108381610e7557610e7461158c565b5b0492506004810190505b60648310610ea25760648381610e9857610e9761158c565b5b0492506002810190505b600a8310610eb1576001810190505b80915050919050565b6000604051905090565b600080fd5b600080fd5b600073ffffffffffffffffffffffffffffffffffffffff82169050919050565b6000610ef982610ece565b9050919050565b610f0981610eee565b8114610f1457600080fd5b50565b600081359050610f2681610f00565b92915050565b60008060408385031215610f4357610f42610ec4565b5b6000610f5185828601610f17565b9250506020610f6285828601610f17565b9150509250929050565b6000819050919050565b610f7f81610f6c565b82525050565b6000604082019050610f9a6000830185610f76565b610fa76020830184610f76565b9392505050565b600060208284031215610fc457610fc3610ec4565b5b6000610fd284828501610f17565b91505092915050565b600081519050919050565b600082825260208201905092915050565b60005b83811015611015578082015181840152602081019050610ffa565b60008484015250505050565b6000601f19601f8301169050919050565b600061103d82610fdb565b6110478185610fe6565b9350611057818560208601610ff7565b61106081611021565b840191505092915050565b600060208201905081810360008301526110858184611032565b905092915050565b61109681610f6c565b81146110a157600080fd5b50565b6000813590506110b38161108d565b92915050565b6000806000606084860312156110d2576110d1610ec4565b5b60006110e086828701610f17565b93505060206110f186828701610f17565b9250506040611102868287016110a4565b9150509250925092565b600080fd5b600080fd5b600080fd5b60008083601f8401126111315761113061110c565b5b8235905067ffffffffffffffff81111561114e5761114d611111565b5b60208301915083602082028301111561116a57611169611116565b5b9250929050565b60008083601f8401126111875761118661110c565b5b8235905067ffffffffffffffff8111156111a4576111a3611111565b5b6020830191508360208202830111156111c0576111bf611116565b5b9250929050565b600080600080604085870312156111e1576111e0610ec4565b5b600085013567ffffffffffffffff8111156111ff576111fe610ec9565b5b61120b8782880161111b565b9450945050602085013567ffffffffffffffff81111561122e5761122d610ec9565b5b61123a87828801611171565b925092505092959194509250565b60008115159050919050565b61125d81611248565b82525050565b60006020820190506112786000830184611254565b92915050565b600080fd5b6000610140828403121561129a5761129961127e565b5b81905092915050565b6000602082840312156112b9576112b8610ec4565b5b600082013567ffffffffffffffff8111156112d7576112d6610ec9565b5b6112e384828501611283565b91505092915050565b7f4f6e6c792076616c696461746f72000000000000000000000000000000000000600082015250565b6000611322600e83610fe6565b915061132d826112ec565b602082019050919050565b6000602082019050818103600083015261135181611315565b9050919050565b600081905092915050565b600061136e82610fdb565b6113788185611358565b9350611388818560208601610ff7565b80840191505092915050565b7f2e00000000000000000000000000000000000000000000000000000000000000600082015250565b60006113ca600183611358565b91506113d582611394565b600182019050919050565b60006113ec8286611363565b91506113f7826113bd565b91506114038285611363565b915061140e826113bd565b915061141a8284611363565b9150819050949350505050565b7f4f6e6c79207265736f6c76657273000000000000000000000000000000000000600082015250565b600061145d600e83610fe6565b915061146882611427565b602082019050919050565b6000602082019050818103600083015261148c81611450565b9050919050565b7f4e487b7100000000000000000000000000000000000000000000000000000000600052601160045260246000fd5b60006114cd82610f6c565b91506114d883610f6c565b92508282019050808211156114f0576114ef611493565b5b92915050565b7f4e487b7100000000000000000000000000000000000000000000000000000000600052603260045260246000fd5b600080fd5b600080fd5b600080fd5b6000823560016101400383360303811261155157611550611525565b5b80830191505092915050565b7f4e487b7100000000000000000000000000000000000000000000000000000000600052604160045260246000fd5b7f4e487b7100000000000000000000000000000000000000000000000000000000600052601260045260246000fd5b600080833560016020038436030381126115d8576115d7611525565b5b80840192508235915067ffffffffffffffff8211156115fa576115f961152a565b5b6020830192506001820236038313156116165761161561152f565b5b509250929050565b61162781611248565b811461163257600080fd5b50565b6000813590506116448161161e565b92915050565b6000602082840312156116605761165f610ec4565b5b600061166e84828501611635565b91505092915050565b6000819050919050565b61168a81611677565b82525050565b60006020820190506116a56000830184611681565b92915050565b600080fd5b6116b982611021565b810181811067ffffffffffffffff821117156116d8576116d761155d565b5b80604052505050565b60006116eb610eba565b90506116f782826116b0565b919050565b600080fd5b61170a81611677565b811461171557600080fd5b50565b60008151905061172781611701565b92915050565b600067ffffffffffffffff82169050919050565b61174a8161172d565b811461175557600080fd5b50565b60008151905061176781611741565b92915050565b60008151905061177c81610f00565b92915050565b6000815190506117918161161e565b92915050565b600080fd5b600067ffffffffffffffff8211156117b7576117b661155d565b5b6117c082611021565b9050602081019050919050565b60006117e06117db8461179c565b6116e1565b9050828152602081018484840111156117fc576117fb611797565b5b611807848285610ff7565b509392505050565b600082601f8301126118245761182361110c565b5b81516118348482602086016117cd565b91505092915050565b60006101408284031215611854576118536116ab565b5b61185f6101406116e1565b9050600061186f84828501611718565b600083015250602061188384828501611718565b602083015250604061189784828501611758565b60408301525060606118ab84828501611758565b60608301525060806118bf84828501611758565b60808301525060a06118d384828501611718565b60a08301525060c06118e78482850161176d565b60c08301525060e06118fb8482850161176d565b60e08301525061010061191084828501611782565b6101008301525061012082015167ffffffffffffffff811115611936576119356116fc565b5b6119428482850161180f565b6101208301525092915050565b60006020828403121561196557611964610ec4565b5b600082015167ffffffffffffffff81111561198357611982610ec9565b5b61198f8482850161183d565b91505092915050565b6000815190506119a78161108d565b92915050565b6000602082840312156119c3576119c2610ec4565b5b60006119d184828501611998565b91505092915050565b60006119e582610ece565b9050919050565b6119f5816119da565b8114611a0057600080fd5b50565b600081519050611a12816119ec565b92915050565b600080600080600080600080610100898b031215611a3957611a38610ec4565b5b6000611a478b828c01611a03565b9850506020611a588b828c01611998565b9750506040611a698b828c01611a03565b9650506060611a7a8b828c01611998565b9550506080611a8b8b828c01611998565b94505060a0611a9c8b828c01611998565b93505060c0611aad8b828c01611998565b92505060e0611abe8b828c01611998565b9150509295985092959890939650565b611ad781610eee565b82525050565b6000604082019050611af26000830185611ace565b611aff6020830184610f76565b9392505050565b600060208284031215611b1c57611b1b610ec4565b5b6000611b2a84828501611782565b9150509291505056fea2646970667358221220f4d125487e845ea5ba37f7563dd5e692a982dc600dbe9b62a55243ec0417b28064736f6c634300081a0033",
  "devdoc": {
    "kind": "dev",
    "methods": {
      "attest((bytes32,bytes32,uint64,uint64,uint64,bytes32,address,address,bool,bytes))": {
        "params": {
          "attestation": "The new attestation."
        },
        "returns": {
          "_0": "Whether the attestation is valid."
        }
      },
      "isPayable()": {
        "returns": {
          "_0": "Whether the resolver supports ETH transfers."
        }
      },
      "multiAttest((bytes32,bytes32,uint64,uint64,uint64,bytes32,address,address,bool,bytes)[],uint256[])": {
        "params": {
          "attestations": "The new attestations.",
          "values": "Explicit ETH amounts which were sent with each attestation."
        },
        "returns": {
          "_0": "Whether all the attestations are valid."
        }
      },
      "multiRevoke((bytes32,bytes32,uint64,uint64,uint64,bytes32,address,address,bool,bytes)[],uint256[])": {
        "params": {
          "attestations": "The existing attestations to be revoked.",
          "values": "Explicit ETH amounts which were sent with each revocation."
        },
        "returns": {
          "_0": "Whether the attestations can be revoked."
        }
      },
      "revoke((bytes32,bytes32,uint64,uint64,uint64,bytes32,address,address,bool,bytes))": {
        "params": {
          "attestation": "The existing attestation to be revoked."
        },
        "returns": {
          "_0": "Whether the attestation can be revoked."
        }
      },
      "version()": {
        "returns": {
          "_0": "Semver contract version as a string."
        }
      }
    },
    "version": 1
  },
  "userdoc": {
    "kind": "user",
    "methods": {
      "attest((bytes32,bytes32,uint64,uint64,uint64,bytes32,address,address,bool,bytes))": {
        "notice": "Processes an attestation and verifies whether it's valid."
      },
      "isPayable()": {
        "notice": "Checks if the resolver can be sent ETH."
      },
      "multiAttest((bytes32,bytes32,uint64,uint64,uint64,bytes32,address,address,bool,bytes)[],uint256[])": {
        "notice": "Processes multiple attestations and verifies whether they are valid."
      },
      "multiRevoke((bytes32,bytes32,uint64,uint64,uint64,bytes32,address,address,bool,bytes)[],uint256[])": {
        "notice": "Processes revocation of multiple attestation and verifies they can be revoked."
      },
      "revoke((bytes32,bytes32,uint64,uint64,uint64,bytes32,address,address,bool,bytes))": {
        "notice": "Processes an attestation revocation and verifies if it can be revoked."
      },
      "version()": {
        "notice": "Returns the full semver contract version."
      }
    },
    "version": 1
  },
  "storageLayout": {
    "storage": [
      {
        "astId": 4085,
        "contract": "contracts/DCN6/resolvers/TrustedValidatorResolver/TrustedValidatorResolver.sol:TrustedValidatorResolver",
        "label": "validator",
        "offset": 0,
        "slot": "0",
        "type": "t_address"
      },
      {
        "astId": 4087,
        "contract": "contracts/DCN6/resolvers/TrustedValidatorResolver/TrustedValidatorResolver.sol:TrustedValidatorResolver",
        "label": "buyCollateralResolver",
        "offset": 0,
        "slot": "1",
        "type": "t_address"
      },
      {
        "astId": 4089,
        "contract": "contracts/DCN6/resolvers/TrustedValidatorResolver/TrustedValidatorResolver.sol:TrustedValidatorResolver",
        "label": "sellCollateralResolver",
        "offset": 0,
        "slot": "2",
        "type": "t_address"
      },
      {
        "astId": 4096,
        "contract": "contracts/DCN6/resolvers/TrustedValidatorResolver/TrustedValidatorResolver.sol:TrustedValidatorResolver",
        "label": "userCollateral",
        "offset": 0,
        "slot": "3",
        "type": "t_mapping(t_address,t_mapping(t_address,t_struct(UserCollateral)4027_storage))"
      }
    ],
    "types": {
      "t_address": {
        "encoding": "inplace",
        "label": "address",
        "numberOfBytes": "20"
      },
      "t_mapping(t_address,t_mapping(t_address,t_struct(UserCollateral)4027_storage))": {
        "encoding": "mapping",
        "key": "t_address",
        "label": "mapping(address => mapping(address => struct UserCollateral))",
        "numberOfBytes": "32",
        "value": "t_mapping(t_address,t_struct(UserCollateral)4027_storage)"
      },
      "t_mapping(t_address,t_struct(UserCollateral)4027_storage)": {
        "encoding": "mapping",
        "key": "t_address",
        "label": "mapping(address => struct UserCollateral)",
        "numberOfBytes": "32",
        "value": "t_struct(UserCollateral)4027_storage"
      },
      "t_struct(UserCollateral)4027_storage": {
        "encoding": "inplace",
        "label": "struct UserCollateral",
        "members": [
          {
            "astId": 4024,
            "contract": "contracts/DCN6/resolvers/TrustedValidatorResolver/TrustedValidatorResolver.sol:TrustedValidatorResolver",
            "label": "lockedCollateral",
            "offset": 0,
            "slot": "0",
            "type": "t_uint256"
          },
          {
            "astId": 4026,
            "contract": "contracts/DCN6/resolvers/TrustedValidatorResolver/TrustedValidatorResolver.sol:TrustedValidatorResolver",
            "label": "freeCollateral",
            "offset": 0,
            "slot": "1",
            "type": "t_uint256"
          }
        ],
        "numberOfBytes": "64"
      },
      "t_uint256": {
        "encoding": "inplace",
        "label": "uint256",
        "numberOfBytes": "32"
      }
    }
  }
}